:020000040800F2
:10000000980F0020450100084D0100084F0100082D
:1000100051010008530100085501000800000000CC
:100020000000000000000000000000005701000870
:1000300059010008000000005B010008830F000860
:100040005F0100085F0100085F0100085F01000810
:100050005F0100085F0100085F0100085F01000800
:100060005F0100085F0100085F0100085F010008F0
:100070005F0100085F0100085F0100085F010008E0
:100080005F0100085F0100085F0100085F010008D0
:100090005F0100085F0100085F0100085F010008C0
:1000A0005F0100085F0100085F0100085F010008B0
:1000B000810600085F0100085F0100085F01000879
:1000C0005F0100085F0100085F0100085F01000890
:1000D0005F010008C10B00085F010008310C000837
:1000E0005F0100085F0100085F0100085F01000870
:1000F0005F0100085F0100085F0100085F01000860
:100100005F0100085F0100085F0100085F0100084F
:100110005F0100085F0100085F0100085F0100083F
:100120005F0100085F0100085F0100085F0100082F
:10013000DFF80CD005F092FD0048004711030008DD
:10014000980F00200648804706480047FEE7FEE774
:10015000FEE7FEE7FEE7FEE7FEE7FEE7FEE7FEE777
:10016000771000083101000810B500244FF47A71AF
:10017000022000F0AFFA58B1012000F075FC0446EF
:100180000CB9012000E000200146012000F0B3FC82
:1001900010BD10B58549096848698047022825D0F7
:1001A000032802D0042867D161E0502080490870FC
:1001B000492048704E2088704720C870042404E00D
:1001C000201F7B490855601CC4B27A4800888442CD
:1001D000F6DB774A78A17C4800F048FD7348006858
:1001E0000269744801887248904746E06F48006889
:1001F0007049C2686E4890476D4A74A1724800F019
:1002000035FD6C480088002830DD042273496848B9
:1002100005F0BEF908BB72A16B4800F027FDFFF79F
:10022000A3FF502062490870492048704E20887012
:100230004720C870042404E0201F5D490855601C55
:10024000C4B25C4800888442F6DB58480068026902
:10025000584801885648904708E0042263495448AA
:1002600005F096F910B900206149087005E04F4982
:1002700009688868804700E000BF00BF10BD10B566
:100280004A49096848698047022802D004283CD1BD
:1002900036E0464800684749C26845489047444AA6
:1002A00054A1494800F0E2FC42480088002826DDBD
:1002B00004224E493E4805F06BF900BBFFF754FF9E
:1002C0004FA1414800F0D2FC5020394908704F201E
:1002D00048704E2088704720C870042404E0201F16
:1002E00033490855601CC4B2324800888442F6DBAA
:1002F0002E48006802692F4801882D48904705E084
:100300002A4909688868804700E000BF00BF10BD27
:10031000ADF5047D00BF002600274FF4007104A84E
:1003200005F005F900BF00F039FC02F0B2FE1F49EC
:1003300008600968086880471C4909688868804720
:1003400031A1214800F092FC422000F0CAFD07468E
:100350003A4632A11C4800F089FC25E02448007888
:10036000012802D1FFF715FF01E0FFF788FF4FF4E6
:100370007A71002000F0AEF9B0B102F0C5FF04467A
:100380000D4602F0E3FF064622462B4629A16846A9
:1003900005F0C8FC6A4629A10B4800F067FC32460C
:1003A00029A1094800F062FCD8E700000400002001
:1003B000E8000020000000200D6D6173746572314B
:1003C0003D25730D00000000003801400D6D617384
:1003D000746572323D25730D00000000C571000880
:1003E0006D6173746572330D00000000C071000808
:1003F00002000020736C617665313D25730D0000AD
:10040000736C617665320D0073797374656D206964
:100410006E69742066696E6973680D007378313295
:1004200037385F76657273696F6E203D2025640DE5
:100430000000000025332E326600000072737369DD
:10044000203D2025730D00005061636B6574527868
:100450004761696E203D2025640D000000BF01004A
:10046000A0F10100FBD170472DE9FF5F07468846E8
:100470001D460024A146BA46A346002641465046E2
:1004800005F060F8044614B1BAF1000F03D1002062
:1004900004B0BDE8F09F4FF0000B04E0641C0BF1CA
:1004A000010000F0FF0B404605F05EF85845F5D816
:1004B0002046029905F046F88146B9F1000F01D1B6
:1004C0000020E5E703E014F8010BA855761C4C4525
:1004D000F9D10020A8552846DAE72DE9F04706466D
:1004E0000F4614464FF000093546CA4616B1002F94
:1004F00000DD14B90020BDE8F087207808B900209D
:10050000F9E7204605F030F88146A7EB090000F135
:10051000010A4FF000080EE028782178884207D1C0
:100520004A462146284605F026F808B92846E2E75B
:100530006D1C08F10108D045EEDB0020DBE72DE95A
:10054000F05F06460C4692461F460025AB46B04675
:10055000A94622464FF400714046FFF7BEFF05460C
:1005600015B1B8F1000F02D10020BDE8F09F4FF0A7
:10057000000904E06D1C09F1010000F0FF092046AC
:1005800004F0F2FF4845F5D852462946384604F0B3
:10059000B5FF4046E9E7F0B503460D46164600278D
:1005A00029460A2E03D0002008702846F0BD33B932
:1005B000302001F8010B002008702846F6E7002BD8
:1005C00003DA2D2001F8010B5B4242F210720DE0BC
:1005D00093FBF2F404B937B104F1300001F8010BD8
:1005E00004FB123301270A2092FBF0F2002AEFDC11
:1005F000002008702846D9E710B503460C460021B4
:10060000002200BF09E0985C084481B201F47F40F9
:1006100008B1C8B2411C501CC2B2A242F3DB81F047
:10062000FF01C8B210BD10B50346002400BF04E0AE
:1006300013F8010B01F8010B641C9442F8DB002055
:100640000870104610BD0346181201F8010B0B701C
:100650005000704730B50346002400BF08E013F88F
:10066000010B0880187800020880891C891C00BFD3
:100670009442F4DB154602EBD570401030BD00000B
:1006800010B500240121880701F03DFE012818D192
:100690000121800701F048FE1648006820B1154886
:1006A0000068401E13490860002408E0124850F812
:1006B0002400401C104941F82400601C84B2062C20
:1006C000F4DB10BD0B49086000BF0A490968002926
:1006D000FBD1704710B502460020074B53F822307B
:1006E0008B4205D30023044C44F82230012000E063
:1006F000002010BD08000020F400002010B502F01A
:100700002BFA4FF4803002F047FA02F084FA0446E4
:10071000012C1ED1002002F0C4FA002002F0D3FA0E
:10072000002002F0C7FA4FF4E011200402F09CFA16
:10073000012002F0A5FA00BF392002F050FA00288B
:10074000FAD0022002F09FFA00BF02F0A5FA0828B2
:10075000FBD1012144F2010002F079FB012144F2B6
:100760000C0002F067FB10BD012080F3138800BF6E
:1007700000BFF948006800F4E060F8490843001D34
:10078000F5490860BFF3408F00BF00BFFEE710B51A
:1007900045F2555000F09EFE062000F09EFE40F609
:1007A000FE7000F09DFE00F09EFE00F0A1FE10BD68
:1007B00010B500F098FE10BD70B56FF0040002F0A7
:1007C000AAF900BFE6480068E64AB0FBF2F1B1F1D1
:1007D000807F01D301201EE021F07F40401E4FF0BA
:1007E000E022506150170F22002808DA13071D0E6F
:1007F000D94B0C3300F00F04241F1D5503E01307E1
:100800001C0ED94B1C5400BF00204FF0E022906119
:100810000720106100200028D4D14FF0E0200069AB
:1008200040F001004FF0E021086170BD08B50320E1
:10083000ADF8000010208DF8030003208DF80200B1
:100840006946CA4800F0F8FC4FF48070ADF800002B
:1008500003208DF8020010208DF803006946C4487B
:1008600000F0EAFC4FF4C050ADF8000003208DF812
:10087000020010208DF803006946BC4800F0DCFC43
:100880004FF48060ADF8000003208DF802000420D2
:100890008DF803006946B54800F0CEFCFC20ADF8A9
:1008A000000003208DF8020004208DF80300694643
:1008B000AF4800F0C1FC4FF40070ADF80000182004
:1008C0008DF8030003208DF802006946A84800F067
:1008D000B3FC4FF48060ADF8000004208DF80300F5
:1008E00003208DF802006946A14800F0A5FC4FF4F2
:1008F0006040ADF8000018208DF8030003208DF84B
:1009000002006946994800F097FCC020ADF800004D
:1009100003208DF8020014208DF8030069469348E7
:1009200000F08AFC08BD3EB54FF47A74E00600F092
:10093000F1FD0020ADF80200ADF80600601E80B2A7
:10094000ADF804004720ADF800006946E00600F06D
:10095000B5FE0021E00601F0A1FC0122114690073E
:1009600001F023FA0121880701F004FA3EBD1FB50A
:10097000804801F0DDFC4FF4165000900020ADF8E7
:100980000400ADF80600ADF80800ADF80C000C202E
:10099000ADF80A006946774801F00DFD012240F2EA
:1009A0002771744801F09FFD012240F225517148E2
:1009B00001F099FD01216F4801F089FD1FBD00B5CF
:1009C00085B06D4801F0B8FE0020ADF800004FF48E
:1009D0008270ADF802000020ADF80400ADF806000A
:1009E000ADF808004FF40070ADF80A003820ADF8FB
:1009F0000C000020ADF80E000720ADF8100069468D
:100A00005D4801F0BFFE01215B4801F060FF05B0C9
:100A100000BD08B502F016F800214FF0006002F0AA
:100A200062F84FF4E06002F027F81C208DF8000017
:100A30000A208DF8010000208DF8020001208DF8B9
:100A40000300684602F01DF825208DF80000022002
:100A50008DF8010000208DF8020001208DF80300C0
:100A6000684602F00EF808BD70B504460025092C52
:100A70003DD2DFE804F0050B11181E242A303600A1
:100A800001213A4800F06BFC054631E0022137486D
:100A900000F065FC05462BE04FF48061334800F020
:100AA0005EFC054624E01021314800F058FC054664
:100AB0001EE040212E4800F052FC054618E080213F
:100AC0002B4800F04CFC054612E02021284800F09D
:100AD00046FC05460CE00821254800F040FC054690
:100AE00006E00421224800F03AFC054600E000BF81
:100AF00000BF284670BD70B505460C4695B1012D66
:100B000004D0022D1AD0032D45D137E0012C04D199
:100B10000221164800F03DFC03E00221134800F0DA
:100B20003AFC39E0012C04D10121104800F031FCDD
:100B300003E001210D4800F02EFC2DE0012C04D132
:100B400021030A4800F025FC04E04FF480510748D7
:100B500000F021FC20E000000CED00E00000FA05B0
:100B60001C00002040420F0000E400E0000C0140A7
:100B7000000801400038014000380040012C04D139
:100B800021020E4800F005FC04E04FF480710B4890
:100B900000F001FC00E000BF00BF70BD10B5FFF722
:100BA000ADFDFFF736FFFFF707FEFFF73FFEFFF74C
:100BB000BAFEFFF7DCFEFFF702FF10BD00080140A0
:100BC00010B5002440F225518E4801F071FD10B39C
:100BD00040F225518B4801F095FD8A4801F0E8FC70
:100BE000C4B201208849087000210320FFF772FD7C
:100BF00086480088B0F5007F08DA844801880088BC
:100C0000401C824A10808248445404E000207E49FF
:100C100008707E49088040F227717A4801F048FD4B
:100C200028B1002240F22771764801F05CFC10BD2B
:100C300010B5002440F22551764801F039FD40B14D
:100C400040F22551734801F05DFD724801F0B0FC9F
:100C5000C4B240F227716F4801F02AFD28B100228A
:100C600040F227716B4801F03EFC10BD0FB470B527
:100C700086B006460CA801906FE00B9800785C28BF
:100C80001CD10B98401C0B9000786E2809D072285C
:100C90000FD10D21304601F087FC0B98401C0B90C2
:100CA0000BE00A21304601F07FFC0B98401C0B90B2
:100CB00003E00B98401C0B9000BF47E00B980078B6
:100CC00025283CD10B98401C0B900078642818D044
:100CD000732833D1019810C801900BE02178304679
:100CE00001F062FC00BF4021304601F0CBFC00283F
:100CF000F9D0641C20780028F0D10B98401C0B9090
:100D00001CE0019820C801900A2202A92846FFF79A
:100D100042FC02AC0BE02178304601F045FC00BFFC
:100D20004021304601F0AEFC0028F9D0641C207848
:100D30000028F0D10B98401C0B9000BF06E00B98E8
:100D400010F8011B0B90304601F02EFC00BF402133
:100D5000304601F097FC0028F9D00B980078002865
:100D60008BD106B070BC5DF814FB10B50446264864
:100D70000078012818D132210320FFF7ABFC98B18D
:100D80004FF400722249204604F0B8FB2049214864
:100D9000FFF76CFF4FF400711D4804F0C8FB002002
:100DA0001A4908801849087010BD70B505460E46EE
:100DB000002400BF0CE0295D124801F0F5FB00BFE4
:100DC0004021104801F05EFC0028F9D0601C84B27C
:100DD000B442F0DB70BD03B5684602780A70427811
:100DE0004A7082788A70C278CA700CBD07B56846AE
:100DF000017811704178517081789170C178D1700B
:100E00000EBD000000380140140000200C0000203E
:100E10000C0100200048004010B5044600BF02212C
:100E20004D4801F0D8FD0028F9D021464A4801F08C
:100E30007FFD00BF0121484801F0CDFD0028F9D019
:100E4000454801F077FDC0B210BD2DE9F0410546DF
:100E50000E461746002400210220FFF74CFE45F005
:100E60008000FFF7D9FF00BF04E0305DFFF7D4FF3B
:100E7000601CC4B2BC42F8DB01210220FFF73BFE3C
:100E8000BDE8F08113B50446012201A92046FFF711
:100E9000DCFF1CBD2DE9F04105460E461746002437
:100EA00000210220FFF727FE05F07F00FFF7B4FFC7
:100EB00000BF05E00020FFF7AFFF3055601CC4B253
:100EC000BC42F7DB01210220FFF715FEBDE8F081EF
:100ED00070B504460D46012229462046FFF7DAFF89
:100EE00070BD70B50446002500210220FFF703FE07
:100EF00004F07F00FFF790FFFF20FFF78DFF05460E
:100F000001210220FFF7F7FD284670BD10B5044609
:100F100044F4004400210220FFF7EDFD2012FFF70A
:100F20007BFFE0B2FFF778FF01210220FFF7E3FD2E
:100F300010BD70B504460D462A4621460020FFF735
:100F400084FF70BD70B504460D462A462146002038
:100F5000FFF7A0FF70BD0000003800400D49086099
:100F600000BF0C4909680029FBD170474FF47A7122
:100F70004143084A116000BF064909680029FBD1B6
:100F800070470448006820B102480068401E0149CB
:100F900008607047180000200CB5002001900090F8
:100FA0006C48006840F480306A49086000BF6948B6
:100FB000006800F4003000900198401C01900098F7
:100FC00018B90198B0F5A06FF1D16248006800F43B
:100FD000003010B10120009001E000200090009846
:100FE000012843D15C48006840F010005A4908606D
:100FF0000846006820F0030008600846006840F0DA
:1010000002000860534840685249486008464068FA
:1010100048600846406840F4806048600846406880
:1010200020F47C1048600846406840F4E8104860AE
:101030000846006840F08070086000BF45480068BE
:1010400000F000700028F9D04248406820F003000A
:10105000404948600846406840F00200486000BFD0
:101060003C48406800F00C000828F9D10CBD10B5D0
:10107000FFF792FF10BD10B53648006840F0010040
:10108000344908600846406834490840314948609E
:1010900008460068324908402E4908600846006842
:1010A00020F4802008600846406820F4FE00486074
:1010B0004FF41F008860FFF7DAFF4FF00060294906
:1010C000086010BD10B5002100200022214B5B6894
:1010D00003F00C0121B1042906D0082928D107E02A
:1010E000214B224C236027E01F4B204C236023E040
:1010F000184B5B6803F47010164B5B6803F4803286
:10110000022303EB904022B9194B4343174C236051
:101110000DE0104B5B6803F4003323B1144B4343E1
:10112000124C236003E0104B4343104C236003E058
:101130000D4B0E4C236000BF00BF064B5B68C3F332
:1011400003130C4CE15C094B1B68CB40074C23603C
:1011500010BD000000100240002002400000FFF817
:10116000FFFFF6FE08ED00E000127A001C000020F0
:1011700000093D002000002010B50446CC48844200
:1011800008D10121042001F06FFE0021042001F0AC
:101190006BFE46E0C748844208D10121082001F0D7
:1011A00063FE0021082001F05FFE3AE0C24884425D
:1011B00008D10121102001F057FE0021102001F07C
:1011C00053FE2EE0BD48844208D10121202001F0C9
:1011D0004BFE0021202001F047FE22E0B848844267
:1011E00008D10121402001F03FFE0021402001F004
:1011F0003BFE16E0B348844208D10121802001F073
:1012000033FE0021802001F02FFE0AE0AE48844228
:1012100007D10121801501F027FE0021A01501F062
:1012200023FE10BD10B50121084601F01DFE00216E
:10123000012001F019FE10BD2DE9F0410246002504
:101240000026002000230024002791F803C00CF0A2
:101250000F0591F803C00CF0100CBCF1000F03D087
:1012600091F802C04CEA050591F800C0BCF1000FEE
:1012700031D0146800202BE04FF0010C0CFA00F381
:10128000B1F800C00CEA03069E4220D183004FF063
:101290000F0C0CFA03F7BC4305FA03FC4CEA0404F8
:1012A00091F803C0BCF1280F06D14FF0010C0CFAE5
:1012B00000FCC2F814C00AE091F803C0BCF1480F6A
:1012C00005D14FF0010C0CFA00FCC2F810C0401C14
:1012D0000828D1D31460B1F800C0BCF1FF0F34DD91
:1012E000546800202EE000F1080C4FF0010808FAC5
:1012F0000CF3B1F800C00CEA03069E4221D1830032
:101300004FF00F0C0CFA03F7BC4305FA03FC4CEA50
:10131000040491F803C0BCF1280F05D100F1080CBA
:1013200008FA0CF8C2F8148091F803C0BCF1480F19
:1013300007D100F1080C4FF0010808FA0CF8C2F8C8
:101340001080401C0828CED35460BDE8F0814FF6D1
:10135000FF710180022181700421C1707047024633
:10136000002093680B400BB1012000E00020704783
:101370000146886880B2704702460020D3680B405F
:101380000BB1012000E0002070470146C86880B220
:10139000704701617047416170470AB1016100E027
:1013A00041617047C16070474FF480320A438261E7
:1013B0008161826182698269704702460020434BE5
:1013C00018684FF68073184040EA021008433F4BFC
:1013D000186070473E49C8617047F0B50A4600235F
:1013E00000240021002500F00046B6F1004F02D194
:1013F000364EF16901E0354E7168C0F3034583B2A2
:1014000000F44016B6F5401F08D121F070612F4E50
:10141000766826F070662D4F7E6012E000F480162C
:10142000B6F5801F06D1032606FA05F4A14341F064
:10143000706106E0460D360103FA06F6B14341F04D
:10144000706122B1460D360103FA06F6314300F011
:101450000046B6F1004F02D11C4EF16101E01B4E77
:101460007160F0BD30B500228B071C0F0F2303FA0B
:1014700004F2164B08338C1053F824309343134C6A
:1014800008348D1044F8253023468C1053F824304E
:101490008C07240F00FA04F423430C4C08348D10FD
:1014A00044F8253030BD0A49DC310860704700003F
:1014B00000080140000C01400010014000140140F0
:1014C00000180140001C01400020014000000140C4
:1014D000000020420E49086070470D49486070477F
:1014E0000B49886070474AF6AA200949086070478E
:1014F0004CF6CC4006490860704701460020044A7B
:10150000D2680A400AB1012000E0002070470000C4
:101510000030004010B50446FE48844208D1012145
:10152000C01401F0A1FC0021E01401F09DFCC4E016
:10153000B4F1804F08D10121084601F0A2FC00213E
:10154000012001F09EFCB8E0F348844208D101215B
:10155000022001F096FC0021022001F092FCACE098
:10156000EE48844208D10121042001F08AFC0021C8
:10157000042001F086FCA0E0E948844208D1012162
:10158000082001F07EFC0021082001F07AFC94E0A4
:10159000E448844208D10121102001F072FC0021AE
:1015A000102001F06EFC88E0DF48844208D1012160
:1015B000202001F066FC0021202001F062FC7CE08C
:1015C000DA48844208D10121401401F04DFC002189
:1015D000601401F049FC70E0D548844209D1012132
:1015E000C80401F041FC00214FF4002001F03CFC54
:1015F00063E0D048844209D10121080501F034FCA0
:1016000000214FF4801001F02FFC56E0CA488442BC
:1016100009D10121480501F027FC00214FF40010F9
:1016200001F022FC49E0C548844208D10121402054
:1016300001F027FC0021402001F023FC3DE0C048E0
:10164000844208D10121802001F01BFC0021802070
:1016500001F017FC31E0BB48844208D1012180151C
:1016600001F00FFC0021A01501F00BFC25E0B648AD
:10167000844209D10121080401F0F6FB00214FF456
:10168000803001F0F1FB18E0B048844209D101211B
:10169000480401F0E9FB00214FF4003001F0E4FBC5
:1016A0000BE0AB48844208D10121880401F0DCFB47
:1016B00000214FF4802001F0D7FB10BD00220288EA
:1016C000944B98420ED0994B98420BD0B0F1804F7A
:1016D00008D0914B984205D0904B984202D0904B45
:1016E000984204D14FF68F731A404B881A438D4BA2
:1016F000984207D08C4B984204D04FF6FF431A40D3
:10170000CB881A4302808B8883850B880385814BA5
:1017100098420BD0854B984208D08B4B984205D00D
:101720008A4B984202D08A4B984201D10B7A0386A9
:1017300001238382704770B5002400220023058CAA
:101740004FF6FE7635400584028C8388048B4FF675
:101750008F752C40B51E2C400D882C43751E2A40D9
:101760000D892A434D882A436A4DA8420BD06F4DFC
:10177000A84208D0744DA84205D0744DA84202D0AA
:10178000734DA84213D14FF6F7752A404D892A436D
:101790004FF6FB752A408D882A434FF6FF652B4094
:1017A0004FF6FF552B408D892B43CD892B438380EA
:1017B0000483CD888586028470BD70B50024002224
:1017C0000023058C4FF6EF7635400584028C838824
:1017D000048B48F6FF752C404FF6FF452C400D88D2
:1017E0004FF6FF7606EA05252C434FF6DF752A40B3
:1017F0000D8906EA05152A434D8806EA05152A4390
:10180000444DA84202D0494DA8421DD14FF67F75E4
:101810002A404D894FF6FF7606EA05152A434FF612
:10182000BF752A408D8806EA05152A434FF6FF3515
:101830002B404FF2FF752B408D8906EA85052B431F
:10184000CD8906EA85052B4383800483CD880587EF
:10185000028470BD70B5002400220023058C4FF671
:10186000FF6635400584028C8388848B4FF68F7524
:101870002C404FF6FC752C400D882C434FF6FF553D
:101880002A400D894FF6FF7606EA05252A434D8842
:1018900006EA05252A431F4DA84202D0234DA8423F
:1018A0001DD14FF2FF752A404D894FF6FF7606EAAB
:1018B00005252A434FF6FF352A408D8806EA05257F
:1018C0002A434EF6FF752B404DF6FF752B408D8950
:1018D00006EA05152B43CD8906EA05152B438380BF
:1018E0008483CD888587028470BD70B50022002373
:1018F0000024058C4EF6FF7635400584038C8488E1
:10190000828B48F6FF752A404FF6FF452A400D8826
:1019100020E00000002C01400004004000080040CE
:10192000000C004000100040001400400034014052
:10193000004C01400050014000540140001800409C
:10194000001C0040002000400040014000440140D5
:10195000004801404FF6FF7606EA05252A434DF67A
:10196000FF752B400D8906EA05352B434D8806EAA5
:1019700005352B43FA4DA84202D0FA4DA84208D1B2
:101980004BF6FF752C408D894FF6FF7606EA8515DC
:101990002C4384808283CD88A0F84050038470BD9E
:1019A000828B4FF2FF331A408283828B4FF6FF7394
:1019B00003EA01231A4382837047F0B50C461546AB
:1019C000002200210026078C4EF6FF7C07EA0C0758
:1019D0000784828B018C4FF6FF7707EA043640F6C6
:1019E000FF473A404FF6FF7707EA05273A434FF69D
:1019F000FF7707EA03373A43D94FB8420ED0D94FA1
:101A0000B8420BD0B0F1804F08D0D74FB84205D0C4
:101A1000D64FB84202D0D64FB84206D14DF6FF7726
:101A2000394046F48057394305E047F6FF573940BF
:101A300044F48057394382830184F0BD828B4FF692
:101A4000F3731A408283828B0A4382837047F0B516
:101A50000C461546002200210026078C4FF6FF6C2D
:101A600007EA0C070784828B018C4FF6FF7707EAA1
:101A700004264FF60C773A404FF6FF7707EA031734
:101A80002F433A43B64FB8420ED0B64FB8420BD0B0
:101A9000B0F1804F08D0B44FB84205D0B34FB84230
:101AA00002D0B34FB84206D14FF6FF57394046F443
:101AB0008077394305E04FF2FF57394044F480778F
:101AC000394382830184F0BD028B4FF2FF331A4009
:101AD0000283028B4FF6FF7303EA01231A4302834A
:101AE0007047F0B50C461546002200210026078CF1
:101AF0004FF6EF7C07EA0C070784028B018C4FF648
:101B0000FF7707EA041640F6FF473A404FF6FF77A3
:101B100007EA03373A434FF6FF7707EA05273A43C8
:101B20008F4FB8420ED08F4FB8420BD0B0F1804FDC
:101B300008D08D4FB84205D08C4FB84202D08C4FA0
:101B4000B84206D14FF6DF77394046F010073943E7
:101B500005E04FF65F77394044F0100739430283C0
:101B60000184F0BD028B4FF6F3731A400283028B9F
:101B70000A4302837047F0B50C4615460022002147
:101B8000068C4FF6FE773E400684028B018C4FF6A2
:101B90000C7632407E1C06EA03162E433243704E0A
:101BA000B0420ED06F4EB0420BD0B0F1804F08D093
:101BB0006D4EB04205D06D4EB04202D06C4EB04278
:101BC00006D14FF6FD76314044F00106314305E081
:101BD0004FF6F576314044F001063143028301842B
:101BE000F0BD70B505460C465D4885420ED05D4897
:101BF00085420BD0B5F1804F08D05B48854205D0B7
:101C00005A48854202D05A48854200D100E000BFC0
:101C1000208850B92389A28861882846FFF7ABFF46
:101C2000E1882846FFF79EFF25E0208804280AD196
:101C30002389A28861882846FFF753FFE188284658
:101C4000FFF742FF17E0208808280AD12389A288DD
:101C500061882846FFF7FBFEE1882846FFF7EEFE85
:101C600009E02389A28861882846FFF7A6FEE1885B
:101C70002846FFF795FE70BD2DE9F04105460C465C
:101C800000260127608808B9022600E00026A08807
:101C9000012801D1022700E001272088A0B923896B
:101CA000A28861882846FFF766FFE1882846FFF78B
:101CB00059FF23893A4631462846FFF712FFE1884B
:101CC0002846FFF701FF13E02389A2886188284690
:101CD000FFF707FFE1882846FFF7F6FE23893A461B
:101CE00031462846FFF747FFE1882846FFF73AFFCD
:101CF000BDE8F0810A884B881A438B881A43CB8849
:101D00001A430B891A434B891A438B891A43A0F84B
:101D1000442070474FF6FF71818000210180C1800F
:101D20004180017270470021018041808180C18023
:101D3000018141818181C181704700210180418001
:101D4000012181800021C180018170470021018033
:101D500041808180C1800181418181817047000083
:101D6000002C014000340140000400400008004005
:101D7000000C004021B1028842F00102028004E020
:101D800002884FF6FE731A400280704731B1B0F8F6
:101D9000442042F40042A0F8442005E0B0F844207A
:101DA000C2F30E02A0F8442070471AB183890B4396
:101DB000838102E083898B438381704781827047EE
:101DC00041EA0203A0F8483070471AB183890B43F7
:101DD000838102E083898B438381704701894FF6B9
:101DE000F8721140018170470A46002101894FF6BF
:101DF0008F73194011430181704730B504460D4679
:101E000029462046FFF7F0FF208940F00700208197
:101E100030BD2DE9F04104460D4616461F46602DA3
:101E200006D13B46012231462046FFF75AFE05E027
:101E30003B46012231462046FFF79DFE29462046BB
:101E4000FFF7D2FF208940F007002081BDE8F08134
:101E500030B50C4600210189C9B24FF6FF7505EA7D
:101E60000325154325432943018130BD2DE9F04168
:101E700005460E4617469846002443463A463146E4
:101E80002846FFF7E5FF2C894FF6F870044044F030
:101E900007044FF68F70044044F070042C81BDE8B5
:101EA000F081F0B504460D4616461F463B463246C5
:101EB00029462046FFF7CCFF208940F4804020814E
:101EC000F0BD0185828270470A46002101884FF6E5
:101ED0008F731940114301807047F0B50C461546C9
:101EE0001E460021002200230189028B038C4FF63D
:101EF000F877394021434FF6FC473A4040F201174A
:101F00003A434FF6DD773B404FF6FF7707EA061777
:101F10002F433B43018102830384F0BD0A46002125
:101F2000018B4FF68F7319401143018370470A46A6
:101F30000021018B48F6FF7319404FF6FF7303EA47
:101F400002231943018370470A460021818B4FF613
:101F50008F7319401143818370470A460021818B9A
:101F600048F6FF7319404FF6FF7303EA0223194343
:101F70008183704721B1028842F08002028004E030
:101F800002884FF67F731A400280704721B1828821
:101F900042F00402828004E082884FF6FB731A400C
:101FA0008280704721B1828842F00802828004E07A
:101FB00082884FF6F7731A408280704721B1828879
:101FC00042F00102828004E082884FF6FE731A40DC
:101FD000828070470A460021018B4FF6F773194043
:101FE0001143018370470A460021018B4FF2FF73B2
:101FF00019404FF6FF7303EA022319430183704728
:102000000A460021818B4FF6F773194011438183F3
:1020100070470A460021818B4FF2FF7319404FF63B
:10202000FF7303EA02231943818370470A460021A4
:10203000018B4FF6FB7319401143018370470A4629
:102040000021018B4FF6FF3319404FF6FF7303EA6F
:1020500002231943018370470A460021818B4FF602
:10206000FB7319401143818370470A460021818B1D
:102070004FF6FF3319404FF6FF7303EA022319436B
:10208000818370470A460021018B4FF67F73194008
:102090001143018370470A460021018BC1F30E01F1
:1020A0004FF6FF7303EA02231943018370470A4680
:1020B0000021818B4FF67F73194011438183704754
:1020C0000A460021818BC1F30E014FF6FF7303EA2C
:1020D00002231943818370470A460021018C4FF681
:1020E000FD7319401143018470470A460021018C99
:1020F0004FF6F77319401143018470470A460021D7
:10210000018C4FF6DF7319404FF6FF7303EA021399
:102110001943018470470A460021018C4FF67F73F2
:1021200019404FF6FF7303EA021319430184704705
:102130000A460021018C4FF6FF5319404FF6FF73FA
:1021400003EA02231943018470470A460021018CE7
:102150004FF2FF7319404FF6FF7303EA022319434E
:10216000018470470A460021018C4DF6FF73194027
:102170004FF6FF7303EA023319430184704730B509
:10218000002301248C40A3B2048C9C430484048C5F
:1021900002FA01F5ADB22C43048430BD30B5002302
:1021A00004248C40A3B2048C9C430484048C02FA63
:1021B00001F5ADB22C43048430BD70B50346002058
:1021C00000241846183001258D40ACB21D8CA54363
:1021D0001D8409B1082909D100EB6100056825F0CB
:1021E000700505600568154305600EE00D1FC5F319
:1021F0004E052844056825F4E045056005684FF65E
:10220000FF7606EA02263543056070BD21B10288DB
:1022100042F00202028004E002884FF6FD731A4089
:102220000280704721B1028842F00402028004E07B
:1022300002884FF6FB731A400280704721B18288F2
:1022400042F08002828004E082884FF67F731A4059
:102250008280704702884FF6F7731A400280028826
:102260000A430280704782884FF68F731A4082803B
:1022700082880A438280704702894FF6F8731A40B9
:10228000028102890A430281704702894FF67F73F7
:102290001A40028102890A43028170478184704793
:1022A00081857047818670470187704781877047B5
:1022B000A0F84010704702884FF6FF431A40028092
:1022C00002880A43028070470146888E70470146A3
:1022D000088F70470146888F70470146B1F840006B
:1022E00070470146888C70470146088D704702464A
:1022F0000020138A0B400BB1012000E00020704742
:10230000CA430282704730B50246002000230024F1
:10231000158A05EA0103958905EA010413B10CB198
:10232000012000E0002030BDCA4302827047000057
:1023300010B50446FB48844209D10121880300F00E
:1023400093FD00214FF4804000F08EFD32E0F6480E
:10235000844209D10121480400F093FD00214FF48B
:10236000003000F08EFD25E0F048844209D10121C3
:10237000880400F086FD00214FF4802000F081FDEC
:1023800018E0EB48844209D10121C80400F079FD2E
:1023900000214FF4002000F074FD0BE0E54884427A
:1023A00008D10121080500F06CFD00214FF48010D8
:1023B00000F067FD10BD2DE9F04786B005460E46DA
:1023C0000024A24600BFA1460027B08900B100BF8B
:1023D0002F462C8A4CF6FF700440F08804432C8270
:1023E000AC894EF6F3100440B088318908437189F6
:1023F00008430443AC81AC8A4FF6FF400440B089E7
:102400000443AC8201A800F0A8FCC648874202D170
:10241000DDF810A001E0DDF80CA0A88900F4004070
:1024200040B10AEBCA0000EB0A1031684900B0FB6A
:10243000F1F807E00AEBCA0000EB0A1031688900E6
:10244000B0FBF1F86420B8FBF0F00401200964212E
:1024500001FB1089A88900F4004040B1322000EB54
:10246000C900B0FBF1F000F00700044308E032209F
:1024700000EB09106421B0FBF1F000F00F00044301
:102480002C8106B0BDE8F0874FF4165101600021A1
:102490008180C18001810C214181002181817047AF
:1024A00010B502460020108A4FF2FF0318400B8837
:1024B0004C8823438C882343CC88234318431082C1
:1024C00010BD0021018041808180C180704721B111
:1024D000828942F40052828104E082894DF6FF73C2
:1024E0001A4082817047F0B503460024002600257B
:1024F000002040F66A17B94200D100BF1846C1F368
:10250000421401F01F06012707FA06F5012C01D13C
:102510000C3004E0022C01D1103000E014301AB16C
:1025200007682F43076002E00768AF430760F0BD0C
:102530001AB1838A0B43838202E0838A8B438382AE
:102540007047028A4FF6F0731A400282028A0A43E9
:102550000282704782894FF2FF731A40828182891A
:102560000A438281704721B1828942F0020282814E
:1025700004E082894FF6FD731A4082817047028A17
:102580004FF6DF731A400282028A0A4302827047C2
:1025900021B1028A42F48042028204E0028A4BF6B0
:1025A000FF731A4002827047C1F3080282807047AD
:1025B00001468888C0F308007047818941F0010115
:1025C00081817047028BD2B20283028B42EA0122E0
:1025D00002837047028B02F47F420283028B0A431C
:1025E0000283704721B1828A42F02002828204E095
:1025F000828A4FF6DF731A408282704721B1828A45
:1026000042F01002828204E0828A4FF6EF731A4091
:102610008282704721B1828A42F00802828204E0FD
:10262000828A4FF6F7731A408282704721B18289FD
:1026300042F40042828103E08289C2F30E02828169
:10264000704721B1828A42F40062828204E0828A69
:102650004FF2FF731A4082827047828A4FF6FB73F3
:102660001A408282828A0A438282704721B1828A1A
:1026700042F00202828204E0828A4FF6FD731A4021
:102680008282704702460020B1F5007F00D100BF72
:1026900013880B400BB1012000E00020704701F4CB
:1026A0000072B2F5007F00D100BFCA4302807047BC
:1026B00070B50246002400230025002040F66A166B
:1026C000B14200D100BFC1F3421501F01F03012642
:1026D00006FA03F3012D02D19689334006E0022D5C
:1026E00002D1168A334001E0968A33400C1201264B
:1026F00006FA04F41688344013B10CB1012000E04E
:10270000002070BD10B50022002340F66A14A142DB
:1027100000D100BF0A1201249440A3B2DC4304801C
:1027200010BD000000380140004400400048004057
:10273000004C00400050004010B50446BE488442A2
:1027400008D10121801400F08FFB0021A01400F0BB
:102750008BFB16E0B948844208D10121001400F037
:1027600090FB0021201400F08CFB0AE0B448844266
:1027700007D10121C01300F084FB0021E01300F019
:1027800080FB10BD10B50022028802F441520B8874
:102790004C8823438C882343CC8823430C892343D0
:1027A0004C8923438C892343CC8923431A430280D9
:1027B000838B4FF2FF74234083830B8A038210BD07
:1027C0002DE9F04F85B005460C464FF00009022771
:1027D0004FF000084FF0010B0026B246A88B4FF2D5
:1027E00040010840A88302202884B5F81C90A06806
:1027F000022801D100BF38E0A08810B94FF0010BCA
:1028000001E04FF0020B8D48854200D100E000BF8F
:10281000684600F0A2FADDF800A0E088B0F5007F7D
:102820000AD14FEA1A2000EB80004000A168B0FBFB
:10283000F1F0401D86B20BE04FEA4B10BAFBF0F00E
:1028400000EB80004000A168B0FBF1F0401D86B2B3
:102850000A20B6FBF0F606F00108A6EB0800C0F36C
:102860004F074FF6FF7000EA0828022F01DBFF2F09
:1028700002DD02274FF00008E08840EA08003843F4
:102880002884A088A18908436188084321880843D7
:1028900040F4006040EA0909A5F81C9005B0BDE8C5
:1028A000F08F0021018041808180C18001814181C0
:1028B0008181C1810721018270470021018041800F
:1028C0008180C1800221816000218181704721B116
:1028D000028842F04002028004E002884FF6BF7393
:1028E0001A400280704721B1828B42F48062828359
:1028F00004E0828B4FF6FF331A408283704730B575
:10290000002400230C110125A540ABB21AB1858823
:102910001D43858002E085889D43858030BD1AB1C6
:1029200083880B43838002E083888B4383807047D6
:10293000818170470146888970474FF6FF62914256
:1029400004D0028842F48072028004E002884FF6CC
:10295000FF631A400280704721B1828842F004026E
:10296000828004E082884FF6FB731A4082807047B1
:1029700002884FF2FF731A40028002880A430280E5
:102980007047018841F480510180704721B102886D
:1029900042F40052028004E002884DF6FF731A40B0
:1029A0000280704702460020012901D0108B00E010
:1029B000908A70470146088A7047B1F5804F04D16C
:1029C000028842F48042028004E002884BF6FF73E2
:1029D0001A40028070470246002013890B400BB159
:1029E000012000E000207047CA4302817047F0B523
:1029F0000246002000240023002501F00F070126D5
:102A0000BE40B4B20B1101269E40B3B2968806EACE
:102A100003051689264016B10DB1012000E0002003
:102A2000F0BD10B5002201F00F040123A3409AB2BB
:102A3000D343038110BD0000003001400038004046
:102A4000003C00400020411E3D4A11604A0D3C49B7
:102A50008039C1F88420411E4FF0E022C2F8801274
:102A60004A0D38490A6000BF03E0002236490A5483
:102A7000401C0B28F9D3704734490143344A116094
:102A8000704770B5002100230F22C47804B3304C86
:102A9000246804F4E064C4F5E064210AC1F104038D
:102AA000CA40447804FA03F18478144021430901B0
:102AB000254C0678A155047804F01F050124AC408C
:102AC00005786D11AD0005F1E025C5F8004109E07C
:102AD000047804F01F050124AC40194D06787611E6
:102AE00045F8264070BD1B4A0A400243184B1B1F85
:102AF0001A60704739B1164A121D12680243144B0E
:102B00001B1D1A6006E0124A121D12688243104B08
:102B10001B1D1A607047042808D14FF0E021096995
:102B200041F004014FF0E022116107E04FF0E02195
:102B3000096921F004014FF0E022116170470000A3
:102B400080E100E084E200E000E400E00000FA053B
:102B50000CED00E080FFFF1FDF48006840F001003F
:102B6000DD49086008464068DC490840DA494860A9
:102B700008460068DA490840D749086008460068F6
:102B800020F4802008600846406820F4FE00486079
:102B90004FF41F0088607047CF49096821F48031E5
:102BA000CD4A11601146096821F480211160B0F509
:102BB000803F03D0B0F5802F0ED106E0C6490968EA
:102BC00041F48031C44A116007E0C349096841F407
:102BD000A021C14A116000E000BF00BF704710B5DE
:102BE00001460022002300204A11012A02D1BA4CDA
:102BF000236806E0022A02D1B74C236A01E0B64CF2
:102C0000636A01F01F02012494401C400CB10120B2
:102C100000E0002010BD38B5002000900024002501
:102C200000BF3120FFF7DBFF05460098401C0090F5
:102C30000098B0F5A06F01D0002DF2D03120FFF741
:102C4000CEFF08B1012400E00024204638BD014633
:102C50000020A14A106820F0F80040EAC10010608E
:102C60007047A04908607047024600209A4B586898
:102C700020F47C1042EA01031843974B58607047D8
:102C800098490866704701460020934A506820F032
:102C900003000843506070478F48406800F00C0004
:102CA0007047014600208C4A506820F0F00008432D
:102CB0005060704701460020874A506820F4E06069
:102CC00008435060704701460020834A506820F452
:102CD000605040EAC1005060704729B17E4A527A84
:102CE00002437D4B5A7204E07B4A527A82437A4B0C
:102CF0005A7270477B49D8310860704701460020FE
:102D0000754A506820F440400843506070470021E5
:102D1000714A20321170704A82F82010012802D0C6
:102D200004280AD104E001216B4A2032117005E029
:102D30000521694A2032117000E000BF00BF7047D2
:102D40006949086070476449096A0143624A11622F
:102D50007047654944390860704730B5002100224A
:102D6000002400235C4D6D6805F00C0121B104299D
:102D700005D0082923D105E05C4D056022E05B4DBC
:102D800005601FE0544D6D6805F47012524D6D687A
:102D900005F48034022505EB92421CB9544D55438D
:102DA00005600BE04C4D6D6805F400351DB1504DCC
:102DB0005543056002E04D4D5543056002E04B4D23
:102DC000056000BF00BF444D6D6805F0F0010909C2
:102DD000484D6B5C0568DD4045603F4D6D6805F40E
:102DE000E061090A434D6B5C4568DD4085603A4D02
:102DF0006D6805F46051C90A3E4D6B5C4568DD4065
:102E0000C560354D6D6805F44041890B3A4D6B5CEA
:102E1000C568B5FBF3F5056130BD29B12E4A52698D
:102E200002432D4B5A6104E02B4A526982432A4BDC
:102E30005A61704729B1284A92690243264B9A6128
:102E400004E0254A92698243234B9A61704729B175
:102E5000214AD2690243204BDA6104E01E4AD2695A
:102E600082431D4BDA61704729B11B4AD268024385
:102E7000194BDA6004E0184AD2688243164BDA60D4
:102E8000704729B1144A12690243134B1A6104E0D6
:102E9000114A12698243104B1A6170471249403936
:102EA000086070470F49C86470470B49C871704784
:102EB0000948406A40F080700749486270470146FF
:102EC0000020054A92680A400AB1012000E0002073
:102ED0007047014988727047001002400000FFF8F7
:102EE000FFFFF6FE000042428004424200127A00D8
:102EF00000093D00300000204000002010B5A5482A
:102F0000007810B900F053FF10BD00F051FAFBE754
:102F100070B504460D469F48007820B929462046E2
:102F200000F0F2FE03E02946204600F030FA70BDC2
:102F300070B504460D469748007820B929462046CA
:102F400000F0D3FE03E02946204600F011FA70BDE0
:102F500010B59048007818B9012000F0BEFE02E0DC
:102F6000012000F0FDF910BD10B500240021032060
:102F7000FDF7C1FD00210220FDF7BDFD642404E042
:102F80000A20FDF7EBFF601EC4B2002CF8D101212E
:102F90000320FDF7B0FD01210220FDF7ACFDFA246E
:102FA00004E00A20FDF7DAFF601EC4B2002CF8D15D
:102FB00010BD10B5044678480078A04200D110BD7D
:102FC0007548047073480470007801282FD16F226F
:102FD0007249FDF75FFF002000F0F0F870480068CC
:102FE000407800F07F0040F080006D49096848702B
:102FF0006B48006841780120FDF744FF012000F094
:10300000DDF800206649096881F83D0064490968D7
:1030100081F83E000222624801683D314020FDF700
:1030200014FF6F225D490120FDF734FF18E00020F6
:1030300000F0C4F85A480068407800F07F00584912
:10304000096848705648006841780120FDF71AFF6A
:10305000012000F0B3F86F2250490120FDF71AFF5C
:1030600000BFACE710B54D48401E4E4908604C49C2
:103070000860FFF779FF012046490870084600788C
:10308000FFF797FF00F0CBF847A14A48FDF7EEFDA8
:1030900010BDAFF22F0048490860AFF2331048600E
:1030A000AFF253108860AFF27710C860AFF29F1094
:1030B0000861AFF2B710486108467047354800789C
:1030C000704710B504463348007818B9204600F020
:1030D000BFFC02E0204600F071F810BD10B52D488D
:1030E000007810B900F07CFD10BD00F0F4F8FBE7AB
:1030F00010B52848007810B900F0D1FD10BD00F0DF
:1031000003F9FBE710B52348007810B900F0BBFDC8
:1031100010BD00F0EDF8FBE710B51E48007810B9BF
:1031200000F0D2FD10BD00F011F9FBE710B5194811
:10313000007808B900BFFEE700F00BF910BD10B52C
:103140001448007810B900F0C2FD10BD00F005F978
:10315000FBE710B50F48007810B900F0BBFD10BDBB
:1031600000BFFEE710B50B48007810B900F01CFE58
:1031700010BD00F01AF9FBE710B5044605480078C9
:1031800018B9204600F0A9FD02E0204600F0E8F85A
:1031900010BD000044000020450000200D09002063
:1031A00064000020A40000204C6F526120696E6909
:1031B000740D0000003801407C09002070B5044601
:1031C0000025F9480068407820F0F800F7490870B9
:1031D00008460078844219D0032C01D1012500E073
:1031E0000025F3480078854201D0F1480570EE488B
:1031F0000068407800F0F8002043EB490968487007
:10320000E948006841780120FDF73CFE70BD10B52B
:10321000E54801683F314220FDF75AFE10BD10B568
:103220000020E4490870FFF7F2FF6F22E249012015
:10323000FDF730FE2020DC49096808736F22DE4963
:103240000120FDF702FEDD49086801F0CBFDDB49F6
:10325000887901F011FFD949C87901F046FFD749B3
:10326000087A01F06FFFD549487901F0C1FED349D2
:10327000487A01F0C7FF40F2FF3002F0CFF8CF49A3
:10328000087E02F022F8012002F0FCF8CB4800682A
:10329000CB4988420DD9002002F074F8002002F0DA
:1032A00034F80E20C549087191F9040001F0E8FDD9
:1032B0000CE0802002F066F8012002F026F81420CD
:1032C000BE49087191F9040001F0DAFD0120FFF711
:1032D00075FF10BD704710B5B3480168491C012047
:1032E000FDF7F6FDB0480068407820F0F80010BD0A
:1032F00010B5AD4801680C310C20FDF7E9FDAA4876
:103300000068007B400910BD70B5A74801681B31FB
:103310001B20FDF7DDFDA9480068A94988420AD2B3
:10332000A1490968C87E02F0DBFA04460022A54BD9
:1033300002F03DF970BD9C490968C87E02F0D0FAE0
:1033400004460022A04B02F032F9F3E79F480078D0
:1033500070479F4890F9000070479E4903C9704725
:1033600094490870704700B50120FFF7F9FF00BDD0
:1033700070B505460C469848008820800020964984
:10338000088022889549284602F0B8F870BD70B5CB
:1033900004460D4692480580028821468F4802F077
:1033A000ADF805208349087070BD824800787047E9
:1033B0002DE9F84F4FF0010A7E4800780B2874D2AF
:1033C000DFE800F0060774D4F1F0EFEE73EDEC00E7
:1033D00037E30120FFF7F2FE9D2073490968487426
:1033E00071480068417C1120FDF74CFD7348C07A9C
:1033F000012816D17148007B6B49096881F82400C7
:10340000694801681C311C20FDF762FD66490968A6
:10341000097F01F03F01734A52F8210001F0E2FCFC
:1034200004E0FF206049096881F824005E480068D4
:1034300090F824102420FDF725FD00205A49096842
:1034400081F83D005849096881F83E00022256483B
:1034500001683D314020FDF7F8FC5848807A01288A
:1034600003D10620FFF7AAFE0EE04F480068C07B9C
:103470004D49096848734C480068417B0D20FDF7B1
:1034800001FD0520FFF79AFE4FF48071534802F0CA
:103490004EF84A4840695449086054480069544904
:1034A0000860022043490870CBE2C9E20320FDF71F
:1034B000DBFA01281ED14D4800694D4908603F489C
:1034C000C07A01280FD1384801681C311C20FDF753
:1034D000FFFC35490968097F01F03F01414A52F874
:1034E000210001F07FFC40211220FDF7CBFC0320DE
:1034F000304908700520FDF7B7FA012825D13B486F
:1035000000693B4908602D48C07A01280FD1264840
:1035100001681C311C20FDF7DBFC23490968097F89
:1035200001F03F012F4A52F8210001F05BFC02211B
:103530001220FDF7A7FCFFF7DBFE244908700846C0
:1035400002782CA12E48FDF791FB1C48807A0128B7
:103550000BD12648006926490968401A22490968A2
:10356000884202D90420134908706AE20E480168B3
:1035700012311220FDF7ACFC0B480068807C00F093
:103580002000202842D120211220FDF77BFC0B488F
:10359000807A012836D10749087036E015E2F0E15B
:1035A000E6E1BBE140E139E1640000208600002053
:1035B00087000020680000200D090020480000203E
:1035C000008F4233008064C000A063C078000020F8
:1035D0006C000020700000206A0000209409002088
:1035E00084000020CC71000880000020F40000203E
:1035F0007C00002052784761696E3D25640D000013
:10360000003801400220FD4908701AE2694619207D
:10361000FDF75EFC9DF8000000F0800068B19DF8A9
:103620000000C043401CC0F38500F54908700846FF
:103630000078404240B2087004E09DF80000800825
:10364000EF490870EF4801681A311A20FDF740FC75
:10365000ED480068ED4988422FD2E94890F9000012
:10366000002818DAE64890F9000002F028F904462C
:103670000D46E4490968887E02F032F9804600224E
:10368000E34B01F094FF064622462B4601F08FFFE4
:10369000E04A03C240E0DB490968887E02F020F975
:1036A0000646DD4ADD4B02F029F804460022D84BDD
:1036B00001F07DFFD74A03C22EE0D14890F9000007
:1036C000002818DACE4890F9000002F0F8F8044615
:1036D0000D46CC490968887E02F002F98046002236
:1036E000CF4B01F064FF064622462B4601F05FFFF8
:1036F000C84A03C210E0C3490968887E02F0F0F8A6
:103700000646C54AC54B01F0F9FF04460022C44BEA
:1037100001F04DFFBF4A03C2BB48807A01282FD178
:10372000B8480068C07BB74909684873B548006865
:10373000417B0D20FDF7A6FBB348407A01280DD14F
:10374000B048006890F82200B6490880AD4800688B
:1037500090F82210B448FDF7F5FB52E0A948016843
:1037600013311320FDF7B4FBA6480068C07CAD49B7
:103770000880A4480068C17CAB48FDF7E3FB40E04B
:10378000A048016810311020FDF7A2FB9E48407A46
:10379000012819D19B48006890F82200A1490880AF
:1037A00098480068007C9749096848739548006804
:1037B000417B0D20FDF766FB9248006890F82210CF
:1037C0009948FDF7BFFB1CE08E48016813311320B8
:1037D000FDF77EFB8B480068C07C924908808948D1
:1037E0000068007C87490968487386480068417B07
:1037F0000D20FDF747FB83480068C17C8A48FDF730
:10380000A1FB8148807A012802D17C49087002E03E
:1038100002207A4908704FF0020A12E1012077492C
:1038200008704FF0030A0CE10120FFF7C7FC76484F
:10383000C07A01281AD1F520724909684874724883
:10384000007B7049096881F824006E4801681C31CA
:103850001C20FDF73DFB6B490968097F01F03F0122
:10386000724A52F8210001F0BDFA08E0F7206549DC
:103870000968487400206349096881F82400614898
:10388000006890F824102420FDF7FCFA5D480068D9
:10389000417C1120FDF7F6FA65480078594909681E
:1038A00081F822005748006890F822102220FDF786
:1038B000E9FA002053490968887352480068817BFF
:1038C0000E20FDF7DFFA4F480068807B4D490968FC
:1038D00048734C480068417B0D20FDF7D3FA4948F6
:1038E000006890F822105048FDF723FB412045491D
:1038F000096881F83D0040204249096881F83E008E
:103900000222404801683D314020FDF79EFA032025
:10391000FFF754FC06203949087092E00320FDF7B8
:10392000A3F8012806D108211220FDF7ABFA0720E1
:10393000324908700520FDF797F8012817D1324861
:10394000C07A01280FD12F4801681C311C20FDF7D7
:10395000BFFA2C490968097F01F03F01334A52F848
:10396000210001F03FFA02211220FDF78BFA68E0F6
:103970000120FFF723FC0020204908704FF0040AC3
:103980005FE00120FFF71AFCFA201E49096848741D
:103990001C480068417C1120FDF774FA0020194989
:1039A000096881F83D001749096881F83E00022244
:1039B000144801683D314020FDF747FA0720FFF722
:1039C000FDFB0A200D4908703BE00620FDF74CF88E
:1039D000012834D104211220FDF754FA0720FDF705
:1039E00043F8012826D101211220FDF74BFA0120CE
:1039F000024908704FF0080A21E00000680000202A
:103A00006C0000206400002048000020008F42333A
:103A1000008064C0700000201B9E5E29CB10F13F27
:103A200000A063C06A00002094090020CC71000847
:103A3000840000200020054908704FF0070A00E0CC
:103A400000BF00BF5046BDE8F88F000068000020AE
:103A500070B504460025FE480068407820F0F80064
:103A6000FC49087008460078844219D0032C01D123
:103A7000012500E00025F8480078854201D0F6488D
:103A80000570F3480068407800F0F8002043F049E2
:103A900009684870EE48006841780120FDF7F2F9A6
:103AA00070BD10B5EA48016842314220FDF710FAB6
:103AB00010BD10B50020E9490870FFF7F2FF6F2232
:103AC000E7490120FDF7E6F90020E149096848705F
:103AD000DF48006841780120FDF7D4F92020DC4957
:103AE00009688872DA480068817A0A20FDF7CAF905
:103AF0002020D74909680873D5480068017B0C204D
:103B0000FDF7C0F9D748407E012804D11E20D049D6
:103B10000968487303E00E20CD49096848730820FE
:103B2000CB49096881F82600AA20C9490968C877E5
:103B3000FF20C749096808749320C549096881F8BE
:103B400027006920C249096881F828008120C049FE
:103B5000096881F829007E20BD49096881F82A009A
:103B60009620BB49096881F82B00BE48007E802161
:103B700041EA0010B649096881F8300000F093FF6F
:103B8000B848807EB249096881F832006F22B44992
:103B90000120FDF75AF9B349086800F017FCB14954
:103BA000486800F0B3FCAF49886800F0F9FCAD4804
:103BB00000210269A6480068123000F0DCFEA94826
:103BC00000214269A2480068133000F0D4FE0020B2
:103BD00001F058F80120FFF73BFF00F045FC10BD55
:103BE00010B59B480168491C0120FDF771F9984800
:103BF0000068407820F0F80010BD2DE9F04702225F
:103C0000934801681D311D20FDF744F9904909686A
:103C1000897F8F4A1268527F41EA022001F04FFEED
:103C2000804601F06AFE824601F049FE0646002207
:103C30008D4B01F063FD044601F05FFEBDE8F087A7
:103C40002DE9F0470222824801681B311B20FDF755
:103C500021F97F490968097F7D4A1268D27E41EACD
:103C6000022001F02CFE804601F047FE824601F062
:103C700026FE064600227C4B01F040FD044601F082
:103C80003CFEBDE8F08710B5714801680C310C208E
:103C9000FDF71EF96E480068007B400910BD70B545
:103CA0006B48016811311120FDF712F96849096864
:103CB000487C01F015FE044600224FF0804301F0DD
:103CC0008FFD81F0004170BD6848007870476849F9
:103CD00003C97047674800687047604908707047BB
:103CE00000B50120FFF7F9FF00BD70B505460C4691
:103CF00061480088208000205F49088022885F4951
:103D0000284601F0FBFB70BD70B504460D465C48CB
:103D1000058002882146594801F0F0FB07204F49F1
:103D2000087070BD30B54A48006890F8270000F070
:103D30000700421C4648006890F83000C309444818
:103D4000006890F8300000F0060008B1012000E0A3
:103D5000002004463E48006890F832103C48006855
:103D600090F8300000F01000102801D1022000E08F
:103D700000200546D01820440844284480B230BDB5
:103D80003348006890F82600314B1B6893F82530C3
:103D900040EA03212E48006890F8270000F0070051
:103DA000421C881880B270472C48007870472DE973
:103DB000F04F8BB001200990284800780C2865D27C
:103DC000DFE800F00607A5FEFDFCFBFAF9F8F7F6C0
:103DD000E9E21F48006890F8300000F01000102859
:103DE00005D14C201A49096881F8400004E00C20F4
:103DF0001749096881F84000E1201549096881F8F0
:103E0000410002221248016840314020FDF71DF8B0
:103E10000520FFF71DFE4FF48071184801F087FB65
:103E20001049486801F05CFDCDE90201FFF77AFF17
:103E3000019001F055FD80460022124B01F05EFC1E
:103E40000646DDE9022301F0CBFC00220E4B1EE00A
:103E5000A4000020E0000020E1000020A9000020D4
:103E60000D0900208800002080844E40CC000020F6
:103E7000C0000020C8000020B8000020940A0020E4
:103E8000D80000200000204000408F408AE2CDE9A9
:103E9000040101F033FCCDE9060103F021F908909B
:103EA00001F00DFD04460022FC4B01F080FB824630
:103EB00001F042FD80B2FA4908600846006800EB54
:103EC0005000086008460068F6490860F648006936
:103ED000F6490860F6490860A020F649096881F8AB
:103EE0003500F448006890F835103520FCF7CAFF1B
:103EF0000020F1490870F1490870F1490870F14952
:103F00000870F14908800220F04908704BE2072050
:103F1000FCF7AAFD012809D1E748007830B9012053
:103F2000E5490870E0480069E14908600520FCF7B0
:103F30009BFD01281ED1E048007801281AD1DF48F6
:103F40000078B8B90120DD490870FFF7A8FEE04A03
:103F500003C2FFF775FEDF490860FFF794FEDE49F4
:103F60000870D1480069D1490860D1490860032030
:103F7000D6490870D1480078B8B9CF4800780128F0
:103F800013D1C9480069CA490968401AC549096876
:103F900088420AD90120CD490870C6480068407B94
:103FA00040F020010D20FCF76DFFC448007808E0C8
:103FB000F2E1EBE19CE13CE114E100E1ECE0E2E064
:103FC00013E088B9BC48007870B9BD48007858B98A
:103FD000B5480069B5490968401AB149096888427D
:103FE00002D90520B9490870DDE1B7480088B0F56D
:103FF000807F03DD0620B5490870D4E10420FCF77A
:1040000033FD012853D1B0480088A8B9AD480078E5
:1040100090B9A848006890F8300000F0800080282F
:1040200004D10121A848FCF78DFF05E0A1480068F4
:1040300090F83200A4490880A3480088A149097873
:10404000401A9C49096891F8351001F03F018842F7
:1040500017DD984A126892F8352002F03F019F4A16
:10406000984B1B78D018FCF76DFF9248006890F8C9
:10407000350000F03F0093490978084491490870E1
:1040800015E0914A12788F4B1B78D21AD1B2934A1D
:104090008C4B1B78D018FCF755FF8B48007889496A
:1040A0000978401A8749097808448649087003202E
:1040B000FCF7DAFC012856D17B4800697B4908608F
:1040C0008148008890BB7F48007878BB79480068B9
:1040D00090F8300000F08000802804D101217A4857
:1040E000FCF730FF05E07348006890F8320076492D
:1040F0000880754A1278734B1B78D21AD1B2774A6E
:10410000704B1B78D018FCF71DFF6F4800786D4985
:104110000978401A6B49097808446A4908700120F7
:10412000674908700420694908701CE0FFE7664A87
:104130001278644B1B78D21AD1B2684A614B1B7853
:10414000D018FCF7FFFE604800785E490978401AF5
:104150005C49097808445B49087001205849087097
:1041600004205A4908705648007858B94E480069EA
:104170004E490968401A4A490968884202D905200F
:10418000524908700FE100204E49087001204F4944
:1041900008700220099006E100204A4908704A4947
:1041A000088044480068407B40F020010D20FCF767
:1041B00069FE01204549087003200990F3E00020C2
:1041C00040490870404908803A480068407B40F008
:1041D00020010D20FCF756FE01203C490870062006
:1041E0000990E0E001203349096881F8400020206F
:1041F0003049096881F8410002222E4801684031A7
:104200004020FCF722FE98202A49096881F83500F1
:104210002848006890F835103520FCF733FE03205D
:10422000FFF716FC08202949087000202C49087067
:10423000B9E00620FCF718FC01282ED11D480068C3
:1042400090F8300000F08000802803D1012125483B
:10425000FCF76FFE23480088002808DD214800880D
:10426000402804DC1F4800781F49087002E0202025
:104270001D4908701C4801781848FCF75AFE184878
:1042800000781949097808441549087006480069FA
:104290001649086009200D49087084E00000F03FCD
:1042A000AC000020B0000020F4000020D00000206E
:1042B000D4000020A4000020B4000020B50000209D
:1042C000B6000020BA000020B8000020A90000209D
:1042D000C0000020C8000020CC000020940A00206C
:1042E000BB000020D8000020A8000020DC00002037
:1042F0000420FCF7B9FB70BB2D4800882D490978D4
:10430000401A2D49097888420FDD2C49294A127834
:10431000881829490978FCF70CFE264800782649B8
:10432000097808442349087015E0214A1278214B86
:104330001B78D21AD1B2214A1E4B1B78D018FCF739
:10434000F8FD1B4800781B490978401A194909787B
:104350000844184908700320FCF786FB012809D19E
:1043600017480069174908600A201749087001209A
:10437000FFF76EFB1248006912490968401AB0F550
:104380007A7F02D90B20104908700CE000200E49FA
:1043900008700420099006E000200B4908700520F1
:1043A000099000E000BF00BF09980BB0BDE8F08F96
:1043B000D8000020BB000020A8000020940A0020A4
:1043C000F4000020DC000020A90000202DE9F041CD
:1043D0000446FB480460204601F082FA05460022AC
:1043E000F84B01F0FDF9074601F0A6FA0446200C4F
:1043F000F54909688871200AF3490968C871F249CA
:1044000009680C720322F0480168891D0620FCF738
:104410001CFDBDE8F0812DE9F0410322EA48016866
:10442000891D0620FCF736FDE74800688079000406
:10443000E5490968C97940EA0120E3490968097A30
:104440000843DF490860086801F04AFA064600227E
:10445000DC4B01F053F9044601F06EFAD8490860CC
:1044600008460068BDE8F08138B569460920FCF7C8
:104470002FFDFFF7D0FF04460020D349096848729A
:10448000D1480068417A0920FCF7FCFCCF48FFF7CF
:104490009DFFCD4801683B313B20FCF719FDCA4820
:1044A000006890F83B0000F0BF0040F04000C649B3
:1044B000096881F83B00C448006890F83B103B2035
:1044C000FCF7E0FCC04801683B313B20FCF700FDF5
:1044D00005E0BD4801683B313B20FCF7F9FCBA48D8
:1044E000006890F83B0000F020002028F1D09DF8F3
:1044F0000000B54909684872B3480068417A09204C
:10450000FCF7C0FC2046FFF761FF38BD2DE9F04104
:104510000446AB484460204601F0E2F905462A46CD
:104520000B460020AA4901F05BF9074601F004FAA6
:1045300084B2200AA44909688870A3490968CC702C
:104540000222A1480168891C1046FCF77EFCBDE8E8
:10455000F0812DE9F04102229B480168891C104638
:10456000FCF798FC98480068C078974909688978F2
:1045700040EA012092494860486801F0B1F90646D6
:1045800032460B460020924901F02AF9044601F018
:10459000D3F980B28A49486008464068BDE8F08196
:1045A0002DE9F04104468648846087480168091D6A
:1045B0000420FCF78DFC204601F092F9054600220C
:1045C000804B01F00DF9074601F0B6F984B27E4840
:1045D0000068007900F0C000210A21F0C001084302
:1045E000794909680871784909684C71022276484E
:1045F0000168091D0420FCF728FCBDE8F0812DE9C5
:10460000F041022270480168091D0420FCF71DFCDE
:104610006D48006800796FF0C00101EA00206A4926
:1046200009684979084366498860886801F058F943
:1046300006460022634B01F061F8044601F07CF964
:1046400080B25F49886008468068BDE8F08110B597
:1046500004465D48016809310920FCF739FC5A48D5
:1046600001684D314D20FCF733FC57480068407A13
:1046700000F08000802841D15348006890F84D0038
:1046800000F0870087281CD1052C00DA0524142CA3
:1046900000DD14244C480068407A00F08F0040F0A0
:1046A000700049490968487247480068407A00F03C
:1046B000F000611F01F00F01084343490968487287
:1046C0003AE0022C00DA0224112C00DD11243E48CD
:1046D0000068407A00F08F0040F070003A490968A5
:1046E000487239480068407A00F0F000A11E01F0DD
:1046F0000F0108433449096848721DE0B4F1FF3FD7
:1047000001DA4FF0FF340E2C00DD0E242E48006835
:10471000407A00F08F0040F070002B490968487221
:1047200029480068407A00F0F000611C01F00F0198
:10473000084325490968487223480068417A0920DE
:10474000FCF7A0FB1E48047310BD10B51E4801689D
:1047500009310920FCF7BCFB1B4801684D314D2095
:10476000FCF7B6FB18480068407A00F0800080280B
:1047700019D11548006890F84D0000F0070007288F
:1047800008D111480068407A20F0F000401D0C4923
:10479000087310E00C480068407A20F0F000801C9C
:1047A0000749087307E008480068407A20F0F000E5
:1047B000401E03490873024890F90C0010BD000028
:1047C0008800002080844E40A4000020008F4233E7
:1047D00080847E412DE9FF5F83468A46002018BB16
:1047E0000AF1020001F06BF8064632460B46002043
:1047F0004FF0804101F098FFCDE90001584601F0EB
:104800006FF88046DDE9002300F078FF02460B4692
:10481000CDE902010020FD4900F0E2FF044601F06D
:104820008BF804B0BDE8F09F0AF1030001F047F8EF
:1048300002460B46CDE9000100204FF0804101F017
:1048400073FFCDE90201584601F04AF80646DDE95A
:10485000022300F053FF044622460B460020EB499A
:1048600000F0BEFF804601F067F8DAE72DE9F74F68
:1048700088B08A4693460024A14600BF0027DFF88F
:10488000908300BF72E04FF010096AE0002008BB7F
:10489000A01C01F014F802460B46CDE900010020EF
:1048A0004FF0804101F040FFCDE90401484601F09E
:1048B00017F8CDE90201DDE9042300F01FFF0246ED
:1048C0000B46CDE906010020D04900F089FF0546DE
:1048D0000E4620E0E01C00F0F2FF02460B46CDE958
:1048E000000100204FF0804101F01EFFCDE90401DE
:1048F000484600F0F5FFCDE90201DDE9042300F0B0
:10490000FDFE02460B46CDE906010020BF4900F03E
:1049100067FF05460E46089800F0E2FF2A46334638
:10492000CDE9040100F0E7FE21F000413A4643469C
:10493000CDE9060101F01AF80FD2089800F0D0FF77
:104940002A463346CDE9060100F0D5FE21F00048A5
:1049500007468AF800908BF8004009F1040000F047
:10496000FF09B9F1180F91DD601CC4B2082C8ADB75
:104970000BB0BDE8F08F7CB504460E46154600200E
:1049800001900090A34800681230844203D106F0E1
:104990006000207001E0002020706A4601A92846CE
:1049A000FFF764FF9DF80400102804D014280AD0F3
:1049B00018281CD111E020789DF8001001F00701A3
:1049C0000843207014E020789DF8001001F00701E2
:1049D00041F00801084320700AE020789DF800109B
:1049E00001F0070141F010010843207000E000BF12
:1049F00000BF884800681230844206D12178122016
:104A0000FCF740FA8448056105E021781320FCF7A3
:104A100039FA814845617CBD70B504460025002601
:104A20002078C0F3C10020B1012804D0022806D1AB
:104A300003E0102604E0142602E0182600E000BF80
:104A400000BF207800F007013046FFF7C3FE05469F
:104A5000704800681230844203D128466E490D61C7
:104A600070BD28466C494D61FAE710B504466948A7
:104A7000016830313020FCF72BFA6648006890F866
:104A8000300000F0EF0040EA04106249096881F844
:104A900030006048006890F830103020FCF7F2F9E0
:104AA0005D48047610BD10B55A4801683031302099
:104AB000FCF70EFA5748006890F83000C0F3001079
:104AC000554908760846007E10BD10B50446514889
:104AD00001680D310D20FCF7FBF94E480068407B62
:104AE00000F0EF0040EA04104A4909684873494859
:104AF0000068417B0D20FCF7C5F94748447610BD9E
:104B000010B5444801680D310D20FCF7E1F941482A
:104B10000068407BC0F300103F4948760846407E5D
:104B200010BD10B504463B48006880F83240394853
:104B3000006890F832103220FCF7A4F936488476E9
:104B400010BD10B53348016832313220FCF7C0F98E
:104B50003048006890F832002F4988760846807EF9
:104B600010BD10B504462B4801684D314D20FCF7AF
:104B7000AFF92848016809310920FCF7A9F925484F
:104B80000068407A00F08000802807D1012C0AD10B
:104B900087202049096881F84D0004E084201D49E0
:104BA000096881F84D001B48006890F84D104D20B1
:104BB000FCF768F910BD10B5164801684D314D205D
:104BC000FCF786F91348006890F84D0000F00700E4
:104BD000072801D1012010BD0020FCE710B50446D4
:104BE0000C48016809310920FCF772F9094800688E
:104BF000407A00F07F002043064909684872054862
:104C00000068417A0920FCF73DF910BD80847E419F
:104C1000D0126341A40000208800002010B56F4826
:104C2000016809310920FCF753F96C480068407AA3
:104C300020F07F0010BD10B50446684801680A31B5
:104C40000A20FCF745F965480068807A00F0F0001A
:104C500024F0F00108436149096888725F480068E0
:104C6000817A0A20FCF70EF910BD10B55B48016887
:104C70000A310A20FCF72CF958480068807A20F0A5
:104C8000F00010BD10B50446544801680E310E20E6
:104C9000FCF71EF9002C04DA1F2020EA0404641C2F
:104CA00064424E480068807B04F01F0140EAC10066
:104CB0004A490968887349480068817B0E20FCF7DF
:104CC000E1F810BD10B5454801680E310E20FCF723
:104CD000FFF842480068807BC41004F010001028E0
:104CE00004D11F2020EA0404641C6442204610BD45
:104CF00070B50024394801683B313B20FCF7E8F8E7
:104D00003648006890F83B0000F0FE00334909681F
:104D100081F83B003148006890F83B103B20FCF7DD
:104D2000B1F82E480168491C0120FCF7D1F82B4846
:104D300000684578042029490968487027480068B8
:104D400041780120FCF79EF82548066900BF2448F9
:104D50000069801BFBD0214801683B313B20FCF7F8
:104D6000B7F81E48006890F83B0000F0FE00401CB9
:104D70001A49096881F83B001848006890F83B1010
:104D80003B20FCF77FF8154801683C313C20FCF7DC
:104D90009FF81248006890F83C0000F07F040F482C
:104DA000006890F83C0000F08000802801D160424B
:104DB00044B229460120FCF765F8204670BD10B5C5
:104DC0000446FFF795FF201A40B210BD10B5044607
:104DD000FFF78EFF204440B210BD0000A400002069
:104DE000F40000202DE9F0410446FA480460204612
:104DF00000F076FD05460022F74B00F0F1FC074677
:104E000000F09AFD0446200CF44909688871200AD4
:104E1000F2490968C871F14909680C720322EF4828
:104E20000168891D0620FCF710F8BDE8F0812DE926
:104E3000F0410322E9480168891D0620FCF72AF8A1
:104E4000E648006880790004E4490968C97940EAC5
:104E50000120E2490968097A0843DE4908600868C8
:104E600000F03EFD06460022DB4B00F047FC044606
:104E700000F062FDD749086008460068BDE8F0818F
:104E800010B50446D548016809310920FCF720F81F
:104E9000D248016849314D20FCF71AF8CF48006824
:104EA000407A00F08000802841D1CC48006890F81A
:104EB000490000F0870087281CD1052C00DA052462
:104EC000142C00DD1424C5480068407A00F08F00DF
:104ED00040F07000C14909684872C0480068407AD3
:104EE00000F0F000611F01F00F010843BB490968A1
:104EF00048723AE0022C00DA0224112C00DD112461
:104F0000B6480068407A00F08F0040F07000B34966
:104F100009684872B1480068407A00F0F000A11EAC
:104F200001F00F010843AD49096848721DE0B4F172
:104F3000FF3F01DA4FF0FF340E2C00DD0E24A748AE
:104F40000068407A00F08F0040F07000A3490968C3
:104F50004872A2480068407A00F0F000611C01F03D
:104F60000F0108439D49096848729C480068417ACE
:104F70000920FBF787FF9748047110BD10B59748CB
:104F8000016809310920FBF7A3FF94480168493102
:104F90004D20FBF79DFF91480068407A00F08000AB
:104FA000802819D18D48006890F8490000F007006A
:104FB000072808D189480068407A20F0F000401D99
:104FC0008449087110E085480068407A20F0F000BC
:104FD000801C8049087107E080480068407A20F012
:104FE000F000401E7B4908717A4890F9040010BD1A
:104FF00010B50446794801681D311D20FBF768FF94
:1050000076480068407F64F31F1074490968487748
:1050100072480068417F1D20FBF734FF6D484471E2
:1050200010BD10B56D4801681D311D20FBF750FF04
:105030006A480068407F0011664948710846407917
:1050400010BD10B504466548016830313120FBF7CA
:105050003FFF6248006890F8300000F0F8002043FD
:105060005E49096881F830005C48006890F83010AB
:105070003120FBF707FF10BD10B504460C2C01DDF5
:105080000C2402E0062C00DA0624062C03D10520AD
:10509000FFF7D7FF02E00320FFF7D3FF4F48016877
:1050A0001E311E20FBF714FF4C480068807F64F31C
:1050B0001F104A490968887748480068817F1E2088
:1050C000FBF7E0FE4348847110BD10B5434801680A
:1050D0001E311E20FBF7FCFE40480068807F001157
:1050E0003C4988710846807910BD10B504463B489C
:1050F00001681D311D20FBF7EBFE38480068407F3A
:1051000000F0F10040EA4400344909684877334828
:105110000068417F1D20FBF7B5FE2E48C47110BD0D
:1051200010B52E4801681D311D20FBF7D1FE2B481C
:105130000068407F20F0F10040102649C871084601
:10514000C07910BD10B50446244801681E311E20E8
:10515000FBF7BEFE21480068807F00F0FB0040EABC
:1051600084001E49096888771C480068817F1E20DA
:10517000FBF788FE1748047210BD10B504460222E2
:105180001648016820312020FBF784FE200A1349CD
:10519000096881F820001149096881F8214002223C
:1051A0000E48016820312020FBF74FFE10BD10B5DE
:1051B00002220A48016820312020FBF76BFE0748D5
:1051C000006890F821100548006890F8200041EA36
:1051D000002010BD4800002080844E406400002064
:1051E00010B5C44801681E311E20FBF771FEC1488E
:1051F0000068807F00F004004010BF490872084634
:10520000007A10BD10B50446BA4801681D311D2052
:10521000FBF75EFEB7480068407F00F0FE002043C9
:10522000B44909684877B3480068417F1D20FBF7FF
:1052300029FEB148447210BD10B5AE4801681D3159
:105240001D20FBF745FEAB480068407F00F00100E1
:10525000A94948720846407A10BDA749887270472C
:10526000A548807A7047A449C8727047A248C07A9E
:10527000704710B504469F48006880F824409D4858
:10528000006890F824102420FBF7FCFD9A48047372
:1052900010BD10B59748016824312420FBF718FE93
:1052A0009448006890F82400934908730846007BEE
:1052B00010BD9149086170478F48006970478E4959
:1052C000486170478C484069704710B5044689486A
:1052D000006880F822408748006890F82210222059
:1052E000FBF7D0FD8448047610BD10B581480168F5
:1052F00022312220FBF7ECFD7E48006890F8220066
:105300007D4908760846007E10BD10B504467948F0
:10531000016849314D20FBF7DBFD76480168093112
:105320000920FBF7D5FD73480068407A00F0800043
:10533000802807D1012C0AD187206E49096881F89D
:10534000490004E084206B49096881F849006948F4
:10535000006890F849104D20FBF794FD10BD10B582
:105360006448016849314D20FBF7B2FD614800688F
:1053700090F8490000F00700072801D1012010BD76
:105380000020FCE710B504465A480168093109209D
:10539000FBF79EFD57480068407A00F07F002043ED
:1053A00054490968487253480068417A0920FBF75C
:1053B00069FD10BD10B54F48016809310920FBF7A0
:1053C00087FD4C480068407A20F07F0010BD10B582
:1053D0000446484801680A310A20FBF779FD454830
:1053E0000068807A00F0F00024F0F00108434149A1
:1053F000096888723F480068817A0A20FBF742FDFD
:1054000010BD10B53B4801680A310A20FBF760FD6A
:1054100038480068807A20F0F00010BD10B50446CE
:105420000222344801681E311E20FBF733FD31484B
:105430000068807F00F0FC006FF0FC0101EA24218D
:1054400008432C49096888772A490968CC770222E1
:10545000284801681E311E20FBF7F7FC10BD10B56F
:105460000222244801681E311E20FBF713FD21484B
:105470000068C07F1F490968897F21F0FC0140EA6C
:10548000012010BD10B504461A48016826312620B7
:10549000FBF71EFD1748006890F8260000F0F700A3
:1054A00040EAC4001349096881F8260011480068E1
:1054B00090F826102620FBF7E5FC10BD10B50D482E
:1054C000016826312620FBF703FD0A48006890F8A2
:1054D0002600C0F3C00010BD10B506480168303189
:1054E0003120FBF7F5FC0348006890F8300000F02D
:1054F000070010BD640000204800002040EA0103BE
:105500009B0703D009E008C9121F08C0042AFAD279
:1055100003E011F8013B00F8013B521EF9D270473D
:10552000D2B201E000F8012B491EFBD270470022E5
:10553000F6E710B513460A4604461946FFF7F0FF92
:10554000204610BD30B505462A460B4612F8010B21
:1055500013F8014B08B1A042F8D01CB1002802D0CA
:105560006D1CF1E7284630BD421C10F8011B0029D4
:10557000FBD1801A704730B504460020034600E096
:105580005B1C934203D2E05CCD5C401BF8D030BD85
:1055900030B505460020034600E05B1C934205D26F
:1055A000EC5CC85C201A01D1002CF6D130BD2DE98D
:1055B000FE4F804681EA0300C00F0C46009021F0A8
:1055C000004123F00045B8EB0200A94105D2404656
:1055D000214690461C460B46024623F000401043ED
:1055E00047D0270DC7F30A00C3F30A510290401AAF
:1055F000019040286BDAC3F3130040F4801B00983D
:10560000924620B10023D2EB030A63EB0B0B019807
:105610005946C0F14002504600F007FA06460D46D2
:1056200050465946019A00F01FFA10EB08006141FC
:10563000002487EA115284EAE7731A4340D0009AA3
:1056400062B3019A012A4FEA075215DC001B61EB95
:1056500002014FF0004202EA0752CDE90042001C6D
:1056600041F5801132462B4600F01FFA03B0BDE829
:10567000F08F40462146F9E7001B61EB0201001C58
:1056800041F5801300185B412018A2F5001747EB85
:10569000030140EAD570B6196D4111E06D084FEA7B
:1056A000360645EAC0754FEA0752001B61EB02015E
:1056B000001C41F5801149084FEA300000195141A2
:1056C00032462B4603B0BDE8F04F00F0DFB900983A
:1056D000012240000023D0EB020263EBE07300984C
:1056E00021464FEAE074B8EB000061EB0401E9E702
:1056F00083F000435BE781F0004158E72DE9FE4F5E
:1057000081EA030404F0004421F0004100944FF0CA
:10571000000B23F0004350EA01045ED052EA030478
:105720005BD0C3F30A54C1F30A552C44A4F2F334FA
:105730000194A0FB0254C1F3130141F48011C3F39F
:10574000130343F4801301FB024400FB034E840A5D
:10575000970A44EA815447EA8357A4FB07680295F5
:105760008D0A05FB07854FEA932C04FB0C54270593
:10577000029D4FEA065847EA1637B5EB08056EEB6F
:10578000070C870E920E47EA811742EA8312A7FBA5
:105790000201B6EB0B0164EB00042B0D43EA0C3362
:1057A0005E1844EB1C50DA465146E7FB0201C5F394
:1057B00013044FEA0B3343EA14534FEA0432019CBB
:1057C00043EA0603A4F10C040294009CCDE900B462
:1057D00000F06BF903B0BDE8F08F00200146F9E757
:1057E0002DE9F04D81EA030404F0004B21F000455F
:1057F00014464FF0000A23F0004150EA050220D081
:1058000054EA01021DD0C5F30A570246C5F313033B
:10581000C1F31300C1F30A5640F4801543F480131A
:10582000A7EB0608101BD64608F2FD3873EB0500FF
:1058300002D308F1010801E092185B41B8F1000FB2
:1058400003DA00200146BDE8F08D00204FF48011FE
:10585000064684460EE0171B73EB050705D3121BA3
:1058600063EB050306434CEA010C49084FEA30009C
:1058700092185B4150EA0107EDD152EA030012D0C1
:1058800082EA040083EA0501084305D0101BAB41FE
:1058900006D20122002306E000224FF0004302E07E
:1058A0006FF0010253101AEB06004CEB085110EB9D
:1058B0000A0041EB0B01BDE8F04D00F0E7B80EB572
:1058C000C10F80EAE0700844CA07002140F2334368
:1058D0008DE80E000A460B4600F0E7F803B000BD65
:1058E0000EB540F2334102910021CDE900110A4684
:1058F0000B4600F0DAF803B000BD70B5C1F30A52F0
:1059000001F000450024C1F3130140F2FF3341F4DC
:1059100080119A4201DA002070BD40F233439A426E
:10592000A2F2334203DC524200F08EF800E09040D5
:105930002C43F1D0404270BDC1F30A5210B5C1F3FF
:10594000130140F2FF3341F480119A4201DA002042
:1059500010BD40F233439A42A2F2334203DC52427A
:1059600000F072F810BD904010BD000030B5041E6C
:1059700071F1000404DB4FF00044404264EB01018C
:10598000141E73F1000405DB1C464FF00043524225
:1059900063EB04038B4208BF824230BD30B50B4637
:1059A000014600202022012409E021FA02F59D424F
:1059B00005D303FA02F5491B04FA02F52844151E23
:1059C000A2F10102F1DC30BD2DE9F05F05460020B7
:1059D00092469B4688460646814640241BE0284660
:1059E00041464746224600F02FF853465A46C01A11
:1059F000914110D311461846224600F016F82D1A90
:105A000067EB01084F4622460120002100F00DF807
:105A100017EB00094E41201EA4F10104DFDC4846CB
:105A200031462A464346BDE8F09F202A04DB203A4F
:105A300000FA02F1002070479140C2F1200320FAE1
:105A400003F3194390407047202A04DB203A21FADF
:105A500002F00021704721FA02F3D040C2F1200287
:105A60009140084319467047202A06DBCB17203A9D
:105A700041FA02F043EAE07306E041FA02F3D04053
:105A8000C2F12002914008431946704710B5141E18
:105A900073F1000408DA401C41F1000192185B41E7
:105AA0001A4301D120F0010010BD2DE9F04D9246BE
:105AB0009B4611B1B1FA81F202E0B0FA80F22032D5
:105AC0009046FFF7B2FF04460F4640EA0A0041EA5B
:105AD0000B0153465A46084313D0114653EA0100BE
